S315080000004012002051030008F97F00086D700008AF
S31508000010F57F0008451B0008C5A900080000000078
S31508000020000000000000000000000000AB99000876
S31508000030AF1B00080000000083970008979D000882
S315080000406B0300086B0300086B0300086B030008CA
S315080000506B0300086B030008B11B00086B0300085C
S315080000606B0300086B0300086B030008471B0008B6
S31508000070531B00085F1B00086B0300086B0300088E
S315080000806B0300086B0300086B0300086B0300088A
S315080000906B0300086B0300086B0300086B0300087A
S315080000A06B0300086B0300086B0300086B0300086A
S315080000B0259E0008319E00083D9E00086B03000837
S315080000C06B0300086B0300086B0300086B0300084A
S315080000D06B030008D5A800086B0300086B0300082B
S315080000E06B0300086B0300086B0300086B0300082A
S315080000F06B0300086B0300086B0300086B0300081A
S315080001006B0300086B0300086B0300086B03000809
S315080001106B0300086B0300086B0300086B030008F9
S315080001206B0300086B0300086B0300086B030008E9
S315080001306B0300086B0300086B0300086B030008D9
S315080001406B0300086B0300086B0300086B030008C9
S315080001506B0300086B0300086B0300089D6F00081B
S315080001606B0300086B0300086B0300086B030008A9
S315080001706B0300086B0300086B0300086B03000899
S315080001806B0300086B0300086B0300086B03000889
S315080001906B030008000000006B0300086B030008EF
S315080001A06B0300086B0300086B0300086B03000869
S315080001B06B0300086B0300086B0300086B03000859
S315080001C06B0300086B0300086B0300086B03000849
S315080001D06B0300086B03000800F002F800F0A8F8AB
S315080001E014A696E8000CB244B344DA4501D100F0EF
S315080001F09FF8BAE80F000FA696E83000A5EB0405AD
S3150800020004EB0607AAEB0704A7F101074FEA151541
S315080002104FEA3414A4F10104AC4201D300F088F883
S3150800022013F0010F18BFFB1A43F0010300F001F8A1
S31508000230DBE7184740DC000060DC0000103A24BF0A
S3150800024078C878C1FAD8520724BF30C830C144BF2D
S3150800025004680C6070470000704700000023002403
S3150800026000250026103A28BF78C1FBD8520728BFB8
S3150800027030C148BF0B6070476E2900F0878270292D
S3150800028000F0D18366290CF0EE8665290CF0EB8622
S3150800029067290CF0E88661290CF0E78603681B0AD3
S315080002A028BF41F08001692900F03482642900F0F2
S315080002B03182752900F02E826F2900F05F83782934
S315080002C000F09D83E92900F0F982E42900F0F6821E
S315080002D0F52900F0F382EF2900F05C83F82900F095
S315080002E09C830368DB0928BF41F08001632901F07C
S315080002F0D380732901F0D880E32901F0E380F3293C
S3150800030001F0E880002070471FB50CF09AFE01F056
S315080003103BF90400002000210CF0D0F8401C606076
S31508000320002000210CF0B4F8E0601FBD10B510BD28
S3150800033001F0FCF81146FFF7E7FF0AF0A5FD01F00A
S31508000340D9F903B4FFF7F2FF03BC01F0DDF90000A9
S315080003500948804709480047FEE7FEE7FEE7FEE74B
S31508000360FEE7FEE7FEE7FEE7FEE7FEE70448054987
S31508000370054A064B70470000139E0008D90100087D
S31508000380400C002040120020400E0020400E0020A5
S3150800039053EA020C00F069802DE9F04B4FF0000695
S315080003A0002B1FBFB3FA83F503FA05F424FA05F602
S315080003B05E4012BF1643B2FA82F502FA05F4C5F199
S315080003C020051EBF22FA05FC44EA0C04203556EA2D
S315080003D0044C4FEA144418BF641C4FF000084FF051
S315080003E00009904271EB030C39D3002919BFB1FA01
S315080003F081F701FA07F6B0FA80F700FA07F6C7F1AF
S3150800040020071EBF20FA07FC46EA0C062037B6FB73
S31508000410F4FCA7EB0507103F07F01F0BCBF12006EE
S315080004202CFA06F60CFA0BFB44BFB3460026202F1F
S31508000430A4BF5E464FF0000B5BEA060C08BF4FF000
S31508000440010B19EB0B0948EB0608ABFB027C06FB14
S3150800045002CC0BFB03CCC01B71EB0C01C1E70B46AE
S31508000460024641464846BDE8F08B13B5084318BF17
S315080004704FF0FF300146AFF30080BDE81C407047DF
S315080004801CB50C46064B7B4469460090204600F096
S3150800049096F904460020694600F0A4F920461CBDDA
S315080004A05B0300007CB51D4616460C00009007D07D
S315080004B04142A14202D32044401E01E04FF0FF30E2
S315080004C0064B7B442A4669460190304600F077F988
S315080004D0002C02D0009A002111707CBD290300006F
S315080004E0032A40F2308010F0030C00F0158011F852
S315080004F0013BBCF1020F624498BF11F801CB00F82A
S31508000500013B38BF11F8013BA2F1040298BF00F87D
S3150800051001CB38BF00F8013B11F0030300F052830A
S31508000520083AC0F0088051F8043B083A51F804CB61
S31508000530A0E80810F5E7121D5CBF51F8043B40F827
S31508000540043BAFF30080D20724BF11F8013B11F832
S3150800055001CB48BF11F8012B24BF00F8013B00F876
S3150800056001CB48BF00F8012B70474FF0000200B5D9
S31508000570134694469646203922BFA0E80C50A0E8B8
S315080005800C50B1F12001BFF4F7AF090728BFA0E866
S315080005900C5048BF0CC05DF804EB890028BF40F832
S315080005A0042B08BF704748BF20F8022B11F0804F74
S315080005B018BF00F8012B704730B44FF0013C50F8D3
S315080005C0042B51F8043BCCFA52F4D51A20D1FCB9C5
S315080005D050F8042B51F8043BCCFA52F4D51A17D12B
S315080005E0B4B950F8042B51F8043BCCFA52F4D51A96
S315080005F00ED16CB950F8042B51F8043BCCFA52F4DE
S31508000600D51A05D1002CDAD030BC4FF0000070475F
S3150800061029BAB1FA81F111F01801D1F1200084400C
S31508000620F2D1CA40CB4012F0FF0213F0FF0330BCF0
S31508000630D01A704770477047704710B500F0F4FA43
S31508000640006810BD10B5044600F0EEFA046010BD4F
S3150800065070B5044685690068C10601D5302600E0F4
S315080006602026C00707D070BDD4E90121304690473F
S31508000670206A401C20626D1EF6D570BD70B5044612
S3150800068085690078C00707D170BDD4E9012120200B
S315080006909047206A401C20626D1EF6D570BD096819
S315080006A04A0501D540B27047C905FCD500B2704766
S315080006B009684A0501D5C0B27047C905FCD580B29C
S315080006C0704770B50C460546012A05D0287880067D
S315080006D000D5EA69002302E0012305E05B1C93428A
S315080006E002D2E05C0028F9D1A869E618C01AA86108
S315080006F0286A184428622846FFF7AAFF04E0D5E9C5
S31508000700012114F8010B9047B442F8D32846FFF7A5
S31508000710B5FF70BD2DE9F04106460024106875291D
S31508000720314616A510D0FFF7BAFF002802DA404274
S3150800073013A507E031688A0701D512A502E0490723
S3150800074004D511A5012401E0FFF7B2FF00210A2212
S3150800075006F1240709E0B0FBF2FCB0FBF2F302FB5A
S315080007601C00303078541846491C0028F3D123461B
S315080007702A463046BDE8F04100F09FBA0000000066
S315080007802D0000002B000000200000001168026800
S31508000790006A530501D508700AE0D30501D508801B
S315080007A006E0130603D5C217C1E9000200E0086097
S315080007B00120704701694A1C02610878704700B534
S315080007C08FB0CDE901310021059105497944CDE97C
S315080007D003101146684600F031F90FB000BD00005D
S315080007E0E5FFFFFF0A6802F8010B0A607047D1E9C6
S315080007F000239A4202D2531C0B6010707047000007
S315080008002DE9FF5F15468A460446DFF8AC80F844B2
S315080008100027D8E900103E46CDE9001010E03AF866
S3150800082016106A4602A800F059FE411C07D0217826
S31508000830890603D5E269391891420DD80744761C12
S315080008402078800602D5E069B84205DDAE42E6DBCF
S315080008503AF816000028E2D1A069C01BA06120461C
S31508000860FFF7F6FED8E90010CDE90010002017E0E2
S315080008703AF818106A4602A800F030FEB0F1FF3FB9
S3150800088081460BD000250DF1080B05E0D4E90121BE
S315080008901BF8050090476D1C4D45F7D308F101007C
S315080008A0B0428046E4DB206A384420622046FFF7DF
S315080008B0E5FEBDE8FF9F000096C800002DE9F0415F
S315080008C08046D21D22F007020025D2E90002F5294A
S315080008D015A614D0011E72F1000106DA0023D0EB2A
S315080008E0030063EB020211A608E0D8F800108B0794
S315080008F001D50FA602E0490701D50EA60125114626
S31508000900002408F1240704E000F092F930323A5541
S31508000910641C50EA0102F7D12B463246214640466E
S31508000920BDE8F04100F0C9B9000000002D00000044
S315080009302B0000002000000030B4002100F1240440
S3150800094008E002F00705D208303542EA4372DB08B0
S315080009506554491C52EA0305F3D10468002310A222
S31508000960250708D504F020040C4304D0C4690123E4
S315080009700CA2641EC46130BC00F09FB910B50446D1
S3150800098021461068FFF794FE02462046BDE810404F
S315080009900023D1E7D21D22F00701D1E90023CBE7D6
S315080009A00000000030000000F0B40D46018809057B
S315080009B002D5214C7C4402E01F4C7C440E340021B5
S315080009C000F1240608E002F00F071209E75D42EA83
S315080009D003721B097754491C52EA0307F3D10278BC
S315080009E00023120704D5702D06D009B1022311344D
S315080009F02246F0BC00F061B901231034F8E770B55F
S31508000A0004460D4621461068FFF752FE024629465F
S31508000A102046BDE870400023C6E7D21D22F0070332
S31508000A20D3E90023C0E70368126843F02003036094
S31508000A300823C3610023B7E7F8C600002DE9F05F75
S31508000A40894604464FF0000ADFF874B1FB44C0F843
S31508000A5020A02046E1688847002874D0252806D0BB
S31508000A60D4E901219047206A401C2062F1E700265C
S31508000A705F462046E16888472028054607DB312D72
S31508000A8005D2781910F8200C08B10643F1E7B0072B
S31508000A9001D526F00406C4F81CA00027C4F818A03F
S31508000AA02A2D09D028460BF0EBFC38B304EB87084F
S31508000AB0303DC8F8185019E059F8041B204604EBD5
S31508000AC087029161E1688847012F054618D1E069D8
S31508000AD0002820DA26F020061DE0D8F8180000EBDA
S31508000AE0800005EB40003038C8F818002046E16859
S31508000AF0884705460BF0C4FC0028EED1012F0AD022
S31508000B002E2D08D12046E16888477F1C0546022F0E
S31508000B1046F02006C4DBA069002803DA404246F006
S31508000B200106A061F00701D026F010066C2D0BD047
S31508000B30682D09D04C2D39D06A2D35D0742D35D075
S31508000B407A2D33D016E038E0E1682F4620468847EC
S31508000B50B842054609D16C2F26D04FF48060E1686B
S31508000B60064320468847054604E06C2F1AD04FF402
S31508000B70807006430DB3A5F14100192802D8203527
S31508000B8046F400664A462946204626604E46FFF742
S31508000B9073FB80B101280BD0F61D26F0070000F183
S31508000BA0080956E74020E4E78020D8E70020D6E782
S31508000BB006F104094DE7284652E7206ABDE8F09F8A
S31508000BC088C6000010B5203AC0F00B80B1E818506E
S31508000BD0A0E81850B1E81850A0E81850203ABFF419
S31508000BE0F5AF5FEA027C24BFB1E81850A0E81850B8
S31508000BF044BF18C918C0BDE810405FEA827C24BF0C
S31508000C0051F8043B40F8043B08BF7047D20728BF99
S31508000C1031F8023B48BF11F8012B28BF20F8023BE8
S31508000C2048BF00F8012B704700487047380000207D
S31508000C3030B5B0F10A0271F100034FEA900E4EEAA0
S31508000C40817EB0EB0E0061EB91014FEA101E4EEA71
S31508000C50017E10EB0E0041EB11114FEA102E4EEA01
S31508000C60016E10EB0E0041EB11214FEA104E4EEAD1
S31508000C70014E10EB0E0041EB1141401841F1000105
S31508000C804FEAD00040EA41704FEAD1014FEA8104A9
S31508000C9044EA907410EB800544EB01046D1944EBAB
S31508000CA00404521BA3414FF0000348BF0A3200D583
S31508000CB030BD401C41F1000130BD2DE9F0470D461D
S31508000CC099469246044600F124080168880604D528
S31508000CD0E06921F01001216000E00120A84201DD51
S31508000CE0471B00E00027A1697A1902EB0900081AD8
S31508000CF0A0612078C00602D42046FFF7A9FC00268A
S31508000D0008E0D4E901211AF806009047206A401C39
S31508000D10761C20624E45F4DB2078C0060AD52046AC
S31508000D20FFF796FC06E0D4E9012130209047206AB7
S31508000D30401C2062381EA7F10107F4DC07E0D4E95D
S31508000D40012118F805009047206A401C2062281ED9
S31508000D50A5F10105F3DC2046FFF790FC2078000694
S31508000D6002D50220BDE8F0870120FBE72DE9FF4FF9
S31508000D700C461E464FF0FF378BB0D2E90001DDF86E
S31508000D8060800A908A46C1F30A5505B93D46002196
S31508000D9008464FF00000BAF1000F00F4400005DAEB
S31508000DA000EB80004FF4400101EA50004FEA9059E9
S31508000DB0B9F1010F00DDB9460A9850EA4A000ED08B
S31508000DC044F61050A5F2FF3545432F14B8F1000F2D
S31508000DD01ED07542291E1EDDC9F100021CE0B8F1BD
S31508000DE0010F4FF0000001D0302103E0F24305E087
S31508000DF02154401CB042FBDB30460022002121541E
S31508000E000B99C1F80880C1E900200FB0BDE8F08F42
S31508000E10BD1B6D1CDEE74A4600DA694206A800F0EB
S31508000E20F7FB06AB93E8070003AB83E807005046D9
S31508000E300A990AF0D7F98DE80700A0F500501F387F
S31508000E4000900398002D0ADD42F21F014A46084425
S31508000E50002303A9039068460AF040FC09E0A0F5C0
S31508000E6000504A461F38002303A9039068460AF033
S31508000E704AFC8DE807000004000C03D04FF0FF3051
S31508000E80410800E01046B8F1000F03D00022009296
S31508000E9015461EE0751E05D4FFF7CAFE30326255A8
S31508000EA06D1EF9D5B3460122084302D000227F1CE5
S31508000EB004E02078302801D100227F1E002A0997F5
S31508000EC084D01DE0112D07DAFFF7B2FE30326255E5
S31508000ED06D1C50EA0102F5D1084302D00098C8B14A
S31508000EE00EE00021681E05E0235C625C6354225410
S31508000EF0401E491C8142F7DBAB46A81B401E0990E1
S31508000F00002004F80B000B98099AC0F80880C0E97D
S31508000F10002B7AE711264FF0000857E72DE9F04F26
S31508000F2088460446D21D22F0070191B0D1E9000196
S31508000F30CDE90A010AF0F8FF02460B98C00F01D066
S31508000F402D2007E02068810701D52B2002E020210B
S31508000F5001EAC000032A099001D0072A05DB0346E7
S31508000F604146204600F014FB0BE12078800601D5A7
S31508000F70E06900E00620B8F1650F814606D0B8F1B1
S31508000F80660F18D0B8F1670F70D131E00020B9F1BB
S31508000F90110F009001DB112301E009F101030AAAF0
S31508000FA001A90CA8FFF7E2FEDDE90C70002609F19D
S31508000FB00105834647E001204B4600904FF0004765
S31508000FC00AAA01A90CA8FFF7D1FEDDE90DB00C9914
S31508000FD05D46002610B909F101000D18B9EB0500A8
S31508000FE003D4C0F1FF3609F10105A5EB09002BE092
S31508000FF0B9F1010F01DA4FF001090020B9F1110F1B
S315080010000090484601DD112300E003460AAA01A91B
S315080010100CA8FFF7ABFEDDE90C704D4600268346AB
S31508001020207800070AD4AB4500DA5D4601A8012DF1
S3150800103004DD411911F8011C302907D04F4502DAA1
S3150800104017F1040F04DA012082460FE06D1EEEE761
S31508001050002F02DCED1B3E4403E0781CA84200DDAD
S315080010607D1CB81B00F1010A4FF0004720780007E5
S3150800107003D4AA4501DB4FF0FF3A0021B7F1004F30
S315080010800DF143088DF8431024D002202B23002F9E
S3150800109001DA7F422D230A21021EA0F1010000DC9D
S315080010A05FB197FBF1FC97FBF1F201FB1C7C17463D
S315080010B00CF1300C08F801CDEEE7A8F10100037039
S315080010C02188090501D5452100E06521A0F101081F
S315080010D000F8011C09980FA9A1EB0807FF1D00B12C
S315080010E00120411901EBEA70A1693844081A401E2B
S315080010F0A0612078C00602D42046FFF7A9FA09980D
S3150800110028B1D4E901219047206A401C2062207842
S31508001110C00622D52046FFF79BFA1EE0002E04DB08
S31508001120B34502DD01A8805D00E03020D4E9012145
S315080011309047206A401C2062761CAAF101005FEAEB
S31508001140000A0AD100F020FAC0680168405CD4E9B8
S3150800115001219047206A401C2062281EA5F101053E
S31508001160DCDC07E0D4E9012118F8010B9047206A76
S31508001170401C2062381EA7F10107F3DC2046FFF762
S315080011807DFA032011B041E62DE9F04F04460D46DD
S31508001190D21D22F0070089B0D0E9009748463946A3
S315080011A00AF0C2FE0246F80F01D02D2307E0206898
S315080011B0810701D52B2302E0202101EAC0038DF81F
S315080011C020300BB1012000E00020032A824601D01E
S315080011D0072A04DB2946204600F0DAF93FE12078A1
S315080011E0800601D40D2500E0E569C7F30A560D2DE2
S315080011F049DA00214FEA175B08464FF00000002F36
S3150800120000F4400007DA00EB80004FF4400100EBE1
S31508001210D07001EA60008115012901DD4FF0FF3128
S3150800122000224FEA850CBCF1180F06D31346ACF121
S3150800123018004FF08052C24003E04FF4801323FA9F
S315080012400CF30CF10C0CBCF1200F04D3ACF1200C00
S3150800125009FA0CF001E007FA0CF000294FF00048F3
S3150800126001DD18B90FE00ED140450CD319EB020980
S315080012705F4121B9404502D19F4329EA0209BBEBE8
S31508001280175F00D0761C2088000502D57B48784475
S3150800129002E07A487844193808AA302302F80A3056
S315080012A0037C0AF10101002E0AF1020A53546A4628
S315080012B002DC4FF0300101E04FF031014FF0010838
S315080012C08DF8001002D0A6F2FF3603E059EA47016E
S315080012D000D06B4E002D02DC2178090704D54FF0AB
S315080012E002082E218DF80110C44600210BE0C7F331
S315080012F003433F01C35C491C6D1E02F808300529EB
S3150800130008F1010801DA002DF1DC00210CE000EB00
S315080013101973491C1B786D1E082902F808304FEA14
S31508001320091908F1010801DA002DF0DC21688B069D
S3150800133002D516E0A8F10108E04505DD02EB080331
S3150800134013F8013C302BF5D0B8F1000F09DD02EB9C
S31508001350080313F8013C2E2B03D1090701D4A8F181
S315080013600108002D05DD3E2102F808106D1E08F162
S315080013700108407C002E02F8080008F1010804DA8A
S315080013802D20764202F8080002E02B2002F8080019
S315080013900A214FF47A70864208F101080BDB96FBA6
S315080013A0F0F3303302F8083096FBF0F308F1010841
S315080013B000FB136601E0642E0CDB642096FBF0F359
S315080013C0303302F8083096FBF0F308F1010800FB09
S315080013D0136601E00A2E06DB96FBF1F0303002F8C0
S315080013E0080008F1010896FBF1F001FB10603030A7
S315080013F002F80800A16908F1010808EB050202EBEA
S315080014000A00081AA0612078C00602D42046FFF711
S315080014101FF9216A08AE01EB0A00206204E0D4E94C
S31508001420012116F8010B9047BAF1010AF7D2207884
S31508001430C00602D52046FFF70BF96E4609E016F8F6
S31508001440010B3E280FD0D4E901219047206A401CA1
S315080014502062B8F10108F2D22046FFF70FF909B069
S315080014600320BDE8F08F206A2844206203E0D4E90F
S315080014700121302090476D1EEBD3F8E779BE0000B6
S3150800148002FCFFFF10B5436913B1AFF3008001E01A
S31508001490FFF717F9012010BD127800F124010A7030
S315080014A000224A700122EDE711684FF0FF32E9E7A2
S315080014B010B5436913B1AFF3008001E0FFF7A0F957
S315080014C0012010BD128800F1240182840022C28402
S315080014D00122EDE711684FF0FF32E9E72DE9F04107
S315080014E016460C46054600F047F8036893F80101CE
S315080014F0012807D0FF2C12D8185D80B101202C7066
S31508001500BDE8F081D3F807013246214603F20713F6
S31508001510C7182846BC46BDE8F041002360474FF08F
S31508001520FF30EDE700487047380000207546FFF7A2
S31508001530F9FFAE4605006946534620F00700854682
S3150800154018B020B5FEF712FFBDE820404FF00006A0
S315080015504FF000074FF000084FF0000BAC46ACE820
S31508001560C009ACE8C009ACE8C009ACE8C00921F07C
S3150800157007018D467047000010B500F005F8001DFC
S3150800158010BD00BF39AF0000004870475800002062
S315080015902DE9F0411F46044603260168072A01F48F
S315080015A0006004DB08B116A505E016A503E008B13E
S315080015B015A500E015A521F010002060A069C01E41
S315080015C0A0610FB1401EA0612046FFF741F84FB158
S315080015D0D4E9012138469047206A401C2062C01C85
S315080015E0206206E0206AFAE7D4E9012115F8010B22
S315080015F09047761EF8D22046FFF740F8BDE8F081FE
S315080016004E414E006E616E00494E4600696E660098
S315080016102DE9F047814616468AB0354878440DC804
S315080016208DE80D0032487844801C03AC0DC884E868
S315080016300D0041F69B300844372190FBF1F290FBF0
S31508001640F1F5A5F1800501FB12041B3C02D56442A5
S31508001650012000E00020DFF898A080460027FA4421
S31508001660AAF1BE0A0EE0E0070AD03246684607EB42
S31508001670470101230AEB81010AF045F88DE80700C6
S3150800168064107F1C002CEED1194F7F44AE3F19E041
S31508001690E80715D007EB04100DF1180A90E80E00BC
S315080016A08AE80E00C068F04201D1981908903246BF
S315080016B0012306A903A80AF026F803AB83E8070066
S315080016C06D10641C002DE3D14FF0010332466946C4
S315080016D0B8F1000F03A802D00AF000F801E00AF0FA
S315080016E012F8C9E90001C9F808200AB0BDE8F08770
S315080016F07CBB000010B50446AFF300802046BDE869
S315080017001040FEF71EBE000001491820ABBEFEE7DA
S315080017102600020070470146806AC36DC26D13F049
S31508001720500F07D0D20648BF01F017BC406D426B78
S315080017300846104742F40071C16501680B68CA681B
S315080017401B0703D4910707D501F005BC12F4406FB7
S31508001750FAD1C9688904F7D4C16D21F48071C165CD
S31508001760C16DC90448BF01F0F6BBC16D41F0010166
S31508001770C16501F0F0BB806AC16D41F04001C165E9
S31508001780016E41F00401016601F0E7BB806A01F0D1
S31508001790E3BB0000B0B5016804468A688868C007DC
S315080017A04FF0000031D012F0020218BFB0BD8868B1
S315080017B000F00D0001281FD188684FF6C072C7F6E1
S315080017C0FF721040023088600320086002F073F947
S315080017D021688968C9070DD0054600BF02F06BF974
S315080017E0411B2068032902D38168C90704D1806890
S315080017F0C007F3D10020B0BDE06D40F01000E065F1
S31508001800206E40F0010020660120B0BD70B582B0A0
S3150800181004460020019021688A68D20745D14FF610
S31508001820C076C7F6FF76886806F17F02104209D0AF
S31508001830E06D40F01000E065206E40F00100206683
S31508001840012032E088684FF4C162304040F0010060
S31508001850886040F20010C5F20000814208BF4FF4CC
S315080018600272B1F1A04F08BF4FF40272105800027D
S315080018701DD402F020F921680A68D20714D105465A
S315080018808868C00704D18868304040F00100886045
S3150800189002F011F9401B2168032802D30868C00723
S315080018A0C6D00868C007EBD0002002B070BD40F271
S315080018B02400C2F20000006842F663518009C0F2B3
S315080018C03E51A0FB0101880900EB40000C2101EB09
S315080018D0800000BF019001980028CAD001980138FD
S315080018E0F8E7000080B540F21050C2F2000090ED13
S315080018F0070A9FED2E1AB8EE400A9FED2D2A20EE14
S31508001900010A80EE020A9FED2B3A40F22861C2F2E4
S3150800191000019FED294A9FED295A80EE030A81EDC1
S31508001920000A90ED050A40F2DC01B8EE400A20EE06
S31508001930010A80EE020AC2F2000180EE040A80EE75
S31508001940050A81ED000A90ED030A40F22C61B8EE13
S31508001950400A20EE010A80EE020AC2F2000180EE79
S31508001960030A81ED000A90ED010A40F2E000B8EEA4
S31508001970400A20EE010A80EE020AC2F2000080EE5A
S31508001980040A80EE050A80ED000A01F027F840F205
S315080019900410C2F2000080ED000A00F0CDFF40F20C
S315080019A0C000C2F2000080ED000A80BD083D534029
S315080019B000F0FF456157803D000078420AD7A33BF7
S315080019C080B501F00BF89FED2A1AB4EE410AF1EE44
S315080019D010FA01DA002043E0B4EE410AF1EE10FAFB
S315080019E02DDA9FED241AB4EE410AF1EE10FA29DA3F
S315080019F09FED211AB4EE410AF1EE10FA25DA9FEDB1
S31508001A001F1AB4EE410AF1EE10FA21DA9FED1C1AFC
S31508001A10B4EE410AF1EE10FA1DDA9FED1A1AB4EE89
S31508001A20410AF1EE10FA19DA9FED171AB4EE410AD7
S31508001A30F1EE10FAB8BF80BD4FF47A7010E04FF49B
S31508001A40AF700DE04FF4E1700AE04FF4167007E04E
S31508001A504FF42F7004E04FF4487001E04FF46170C2
S31508001A6040F63C31C2F200010968C86380BD00BF78
S31508001A7000000C42000020420000344200004842A8
S31508001A8000005C420000704200008242B0B540F29D
S31508001A90B804C2F20004207801280FD140F20040B1
S31508001AA0C4F6000020210022002501F0FEFF40F2C6
S31508001AB0B900C2F2000025700570B0BD40F2B90049
S31508001AC0C2F200000078012818BFB0BD40F20040FD
S31508001AD0C4F6000020210122012501F0E6FF257049
S31508001AE0B0BDB0B540F2B804C2F2000420780128AF
S31508001AF005D140F2B900C2F20000007890B140F278
S31508001B00BA00C2F200000078012818BFB0BD40F242
S31508001B100040C4F6000020210122012501F0C5FF7E
S31508001B202570B0BD40F20040C4F600002021002216
S31508001B30002501F0BAFF40F2BA00C2F20000257093
S31508001B400570B0BDFEE740F27470C2F2000001F005
S31508001B5081BD40F63400C2F2000001F07BBD40F2C0
S31508001B60D470C2F2000001F075BD70B5D0E913C497
S31508001B70D0F854E0CCF80440BEF1000F1CBFD0E901
S31508001B80164CC4F804C0D0E910CE046886680EF076
S31508001B901F00012505FA00F0CCF80400084663602A
S31508001BA0102E04BF10460A46A060E26070BD70475A
S31508001BB0012001F089BE00002DE9F04140F2C5067A
S31508001BC0C2F200063078012840F05C8640F6000430
S31508001BD00120C4F60004012501F058FE2046012123
S31508001BE001F056FF002818BFBDE8F08140F2BA00A0
S31508001BF0C2F2000005702046022101F049FF0128C3
S31508001C0035D10FF6F44008F06BFE40F23057C2F2B9
S31508001C10000740F220013A7BC2F200010878002A48
S31508001C206BD0042870D0012840F02A86387B01281A
S31508001C3040F0B580787B012840F0458197ED010A90
S31508001C40BAEE041A30EE010A87ED010A97ED010A89
S31508001C50B6EE001AB4EE410AF1EE10FA80F29A8452
S31508001C6097ED010AB2EE041A30EE010A53E3204654
S31508001C70022101F00DFF002840F002860FF63840D9
S31508001C8008F02EFE40F23054C2F2000440F2200161
S31508001C90227BC2F2000108782AB90130C2B2042AAE
S31508001CA088BF01200870C0B2042851D0012840F02E
S31508001CB0E785207B012840F0BD80607B012840F045
S31508001CC05C8194ED010AB2EE041A30EE010A84ED45
S31508001CD0010A94ED010A9FEDF51AB4EE410AF1EEF8
S31508001CE010FA40F3EA84BAEE040A94ED011A31EECA
S31508001CF0000A84ED010A00F0E0BC0138020608BFBC
S31508001D000420087000F0BCBD387B01286AD1787BB6
S31508001D10012840F0F08040F2F800C2F2000090ED91
S31508001D20000ABAEE041A30EE010A80ED000A90EDB8
S31508001D30000A9FEDDF1AB4EE410AF1EE10FA80F2BE
S31508001D40658590ED000AB2EE041A30EE010A53E3F7
S31508001D50207B012840F09180607B012840F0258196
S31508001D6040F2F805C2F2000595ED000AB2EE041A33
S31508001D7030EE010A85ED000A28680BF0C7F89FEDDA
S31508001D80CE0B53EC102B0BF008F9002840F07385A6
S31508001D9095ED000ABAEE041A30EE010ACDE3387B57
S31508001DA0022840F06D85787B012840F0438197ED45
S31508001DB0020ABAEE041A30EE010A87ED020AB8687A
S31508001DC00BF0A4F89FEDBE0B53EC102B0BF0DEF8CE
S31508001DD0002840F0DF8397ED020AB2EE041A30EECF
S31508001DE0010AD5E3387B022840F0A180787B0128D8
S31508001DF040F08C8140F2FC04C2F2000494ED000A23
S31508001E00BAEE041A30EE010A84ED000A20680BF0D7
S31508001E107DF89FEDAB0B53EC102B0BF0B7F80028B1
S31508001E2040F0F48494ED000AB2EE041A30EE010A8A
S31508001E3000F025BC207B022840F02285607B012823
S31508001E4040F0A78194ED020AB2EE041A30EE010AB8
S31508001E5084ED020AA0680BF059F89FED9B0B53EC32
S31508001E60102B0BF08CF8002800F02784BAEE040A31
S31508001E7094ED021A31EE000AA5E1207B022840F013
S31508001E80B380607B012840F0BA8140F2FC00C2F2C0
S31508001E90000090ED000AB2EE041A30EE010A80ED59
S31508001EA0000A90ED000AB2EE051AB4EE410AF1EE08
S31508001EB010FA40F3E08490ED000ABAEE041A30EE08
S31508001EC0010A00F06FBC787B022840F0CE8097EDBF
S31508001ED0010ABFEE001A30EE010A87ED010A97EDF6
S31508001EE0011AB6EE000AB4EE401AF1EE10FAB8BFBF
S31508001EF087ED010A4EE3787B022840F0268140F2FE
S31508001F00F800C2F2000090ED000ABFEE001A30EEAB
S31508001F10010A80ED000A90ED001A9FED650AB4EEFD
S31508001F20401AF1EE10FAC0F2678200F06FBC387BF7
S31508001F30032840F0A584787B012840F0EF8140F221
S31508001F400010C2F2000090ED000ABAEE041A30EE54
S31508001F50010A80ED000A90ED000AB6EE001AB4EE0A
S31508001F60410AF1EE10FA80F2518490ED000AB2EEC1
S31508001F70041A30EE010A00F043BC607B022840F0E8
S31508001F80258194ED010AB7EE001A30EE010A84EDB8
S31508001F90010A94ED011A9FED450AB4EE401AF1EED6
S31508001FA010FAC8BF84ED010A87E3607B022840F077
S31508001FB0418140F2F800C2F2000090ED000AB7EE47
S31508001FC0001A30EE010A80ED000A00680AF09EFF4A
S31508001FD09FED390B53EC102B0AF0D1FF002800F0C7
S31508001FE04A849FED3B0AA8E2207B032840F04884F8
S31508001FF0607B012840F0398240F20010C2F20000EE
S3150800200090ED000AB2EE041A30EE010A80ED000ADD
S3150800201090ED000A9FED2F1AB4EE410AF1EE10FA80
S3150800202040F3298490ED000ABAEE041A30EE010A4C
S3150800203000F01BBC787B022840F0228197ED020A4B
S31508002040BFEE001A30EE010A87ED020AB8680AF0F8
S315080020505DFF9FED1B0B53EC102B0AF0A5FF002824
S3150800206000F098829FED1C0A92E2787B032840F0E4
S315080020702B8178680AF04AFF9FED190B53EC102B59
S315080020800AF070FA0AF03CFA786097ED010AB6EEA3
S31508002090001AB4EE410AF1EE10FA80F27B827868F3
S315080020A00AF034FF9FED100B2DE100BF00004242FD
S315080020B00000204200BF00BF8FC2F5285CFF5840D1
S315080020C07B14AE47E17A843F3333333333332440CA
S315080020D0E1FAC742000048420AD7233C00BF00BFC6
S315080020E09A9999999999B9BF9A9999999999B93F44
S315080020F09A992141CDCCCC3DCDCCCCBD00BF00BFFB
S315080021007B14AE47E17A84BF0AD723BC787B0228C2
S3150800211040F01F8140F2FC00C2F2000090ED000A78
S31508002120BFEE001A30EE010A80ED000A00680AF0D8
S31508002130EDFE1FED1D0B53EC102B0AF035FF0028A2
S3150800214000F064831FED1C0A99E2787B032840F0AF
S31508002150288140F2F804C2F2000420680AF0D6FE8C
S315080021601FED210B53EC102B0AF0FCF90AF0C8F905
S31508002170206094ED000A1FED321AB4EE410AF1EE22
S3150800218010FA80F2438320680AF0C0FE1FED2A0B7E
S315080021902AE1607B022840F0348194ED020AB7EE0A
S315080021A0001A30EE010A84ED020AA0680AF0AEFEB3
S315080021B01FED3B0B53EC102B0AF0E1FE002800F054
S315080021C07C821FED350A84ED020A76E2607B0328DD
S315080021D040F0328194ED010A1FED3A1A30EE010AF9
S315080021E084ED010A94ED010A1FED501AB4EE410A76
S315080021F0F1EE10FA40F361821FED410A75E5607B46
S31508002200022840F04D8140F2FC00C2F2000090ED39
S31508002210000AB7EE001A30EE010A80ED000A90EDCA
S31508002220001AB2EE050AB4EE401AF1EE10FA00F3FF
S31508002230B98220E3607B032840F0528140F2F8051A
S31508002240C2F2000528680AF061FE1FED590B53EC2F
S31508002250102B0AF087F90AF053F9286028680AF063
S3150800226055FE1FED6B0B53EC102B0AF096FE00285B
S3150800227040F0018328680AF049FE1FED670B54E118
S31508002280787B032840F05E81B8680AF03FFE1FEDB0
S315080022906C0B53EC102B0AF065F90AF031F9B860AB
S315080022A0B8680AF033FE1FED7A0B53EC102B0AF0D0
S315080022B06DFE002840F06E81B8680AF027FE1FED13
S315080022C0760B53EC102B5DE1787B042840F0628195
S315080022D078680AF01BFE1FED760B53EC102B0AF0FC
S315080022E041F90AF00DF9786097ED010AB6EE001A81
S315080022F0B4EE410AF1EE10FA80F24C8178680AF0E1
S3150800230005FE1FED910B53EC102B0AF02BF90AF082
S31508002310F7F800EE100A87ED010A3BE1787B022800
S3150800232040F0588140F20010C2F2000090ED000A19
S31508002330BFEE001A30EE010A80ED000A90ED001A91
S31508002340B6EE000AB4EE401AF1EE10FAC0F2588260
S315080023505CE2787B032840F0618140F2FC04C2F21B
S31508002360000420680AF0D2FD1FEDA30B53EC102BD6
S315080023700AF0F8F80AF0C4F8206020680AF0C6FDEA
S315080023801FEDB10B53EC102B0AF000FE002840F0AD
S315080023903D8220680AF0BAFD1FEDAD0B53EC102BF9
S315080023A067E1787B042840F0318240F2F804C2F2F3
S315080023B0000420680AF0AAFD1FEDAF0B53EC102BA2
S315080023C00AF0D0F80AF09CF8206094ED000A1FED98
S315080023D0C81AB4EE410AF1EE10FA80F217822068A4
S315080023E00AF094FD1FEDCA0B53EC102B0AF0BAF84D
S315080023F00AF086F800EE100A40F2F800C2F2000071
S3150800240002E2607B032840F03F8194ED020A1FED4B
S31508002410C71A30EE010A84ED020AA0680AF076FDB2
S315080024201FEDD70B53EC102B0AF0A9FD002800F07E
S3150800243044811FEDCF0A1BE5607B042840F03D81EF
S3150800244094ED010A1FEDDC1A30EE010A84ED010A4B
S3150800245094ED010A1FEDEB1AB4EE410AF1EE10FAFB
S3150800246040F32B811FEDD80A3FE4607B022840F039
S31508002470548140F20010C2F2000090ED000AB7EE57
S31508002480001A30EE010A80ED000A90ED001A1FEDE1
S31508002490EF0AB4EE401AF1EE10FA00F3E681EAE12B
S315080024A0607B032840F0588140F2FC00C2F200002D
S315080024B090ED000A1FEDF11A30EE010A80ED000AD0
S315080024C090ED000AB2EE051AB4EE410AF1EE10FAE2
S315080024D040F3D18100680AF019FD9FEDEF0B59E131
S315080024E0607B042840F0C78140F2F805C2F2000577
S315080024F028680AF00BFD9FEDE40B53EC102B0AF04D
S3150800250031F809F0FDFF286028680AF0FFFC9FED06
S31508002510E40B53EC102B0AF040FD002840F0AB8189
S3150800252028680AF0F3FC9FEDDA0B53EC102B0AF03F
S3150800253019F809F0E5FF00EE100A40F2F800C2F2B9
S31508002540000096E1787B042824D1B8680AF0DEFCFE
S315080025509FEDCF0B53EC102B0AF004F809F0D0FFCF
S31508002560B860B8680AF0D2FC9FEDC70B54EC105B54
S315080025702A4623460AF00AFD60B9B8680AF0C6FC7E
S315080025802A46234609F0EEFF09F0BAFF00EE100AC4
S3150800259087ED020A787B002800F072814FF07E50A2
S315080025A0386097ED010A9FEDCF1A9FEDCF2A20EEEE
S315080025B0010A80EE020A9FEDCD1A40F20000C2F22F
S315080025C0000020EE010ABDEEC00A80ED020A97ED72
S315080025D0020A91E0787B032840F0E98040F2001473
S315080025E0C2F2000420680AF091FC9FEDAB0B53EC95
S315080025F0102B09F0B7FF09F083FF206094ED000A5D
S31508002600B6EE001AB4EE410AF1EE10FA80F2FE8038
S3150800261020680AF07BFC9FEDA40BE9E0787B042890
S3150800262040F0F48040F2FC08C2F20008D8F8000036
S315080026300AF06CFC9FED960B53EC102B09F092FFF9
S3150800264009F05EFFC8F80000D8F800000AF05EFC42
S315080026509FED8D0B54EC105B2A4623460AF096FC38
S31508002660002840F0D380D8F800000AF04FFC2A462C
S31508002670234609F077FF09F043FF00EE100A40F2FF
S31508002680FC00C2F20000BFE0607B042815D194ED7F
S31508002690020A9FED921A30EE010A84ED020AA0683A
S315080026A00AF034FC9FED820B53EC102B0AF075FCF4
S315080026B018B99FED8B0AFFF7DBBB607B002800F09B
S315080026C0DF804FF07E50206094ED010A9FED851A59
S315080026D09FED852A20EE010A80EE020A9FED831AF5
S315080026E040F20000C2F2000020EE010ABDEEC00A68
S315080026F080ED020A94ED020A9FED7D3A9FED7D4A30
S3150800270020EE030A20EE040A80EE020A20EE010AF1
S31508002710BDEEC00A80ED030AB2E0607B03287BD1D8
S3150800272040F20010C2F2000090ED000A9FED6A1A0E
S3150800273030EE010A80ED000A90ED000A9FED651A59
S31508002740B4EE410AF1EE10FA40F3958000680AF0FB
S31508002750DDFB9FED510B80E0607B042840F08B8009
S3150800276040F2FC00C2F2000090ED000A9FED5B1AF1
S3150800277030EE010A80ED000A90ED000AB2EE051A65
S31508002780B4EE410AF1EE10FA75DD00680AF0BEFBF8
S315080027909FED3F0B53EC102B09F0E4FE09F0B0FE59
S315080027A000EE100A40F2FC00C2F2000061E0787BFD
S315080027B004282BD140F20014C2F2000420680AF063
S315080027C0A5FB9FED330B53EC102B09F0CBFE09F05C
S315080027D097FE206094ED000AB6EE001AB4EE410AA0
S315080027E0F1EE10FA12DA20680AF090FB9FED260B3C
S315080027F053EC102B09F0B6FE09F082FE00EE100A23
S3150800280040F20010C2F2000080ED000A787BB8B3EF
S315080028104FF07E50386033E0607B04282BD140F2BD
S315080028200015C2F2000528680AF070FB9FED160B2A
S3150800283053EC102B09F096FE09F062FE286095ED20
S31508002840000A9FED241AB4EE410AF1EE10FA12DDE1
S3150800285028680AF05BFB9FED0E0B53EC102B09F072
S3150800286081FE09F04DFE00EE100A40F20010C2F299
S31508002870000080ED000A607B10B14FF07E502060AA
S3150800288000203070BDE8F0817B14AE47E17A843FC2
S315080028907B14AE47E17A84BF9A9999999999B9BFF9
S315080028A08FC2F5285CFF58409A9999999999B93F2A
S315080028B03333333333332440E7BC96E7A081E599B5
S315080028C0A8E9A1BAE697B6E99288E6978BE8BDAC7F
S315080028D00D0A000000004842CDCCCC3D0AD7233C67
S315080028E00AD723BC6157803D083D534000F0FF4599
S315080028F00AD7A33B00007842E7BC96E7A081E59992
S31508002900A8E98086E697B6E99288E6978BE8BDAC93
S315080029100D0A0000EFF3108072B600BFFEE740F61E
S315080029203C31642828BF6420C2F2000100EB800015
S3150800293009684000C8637047B0B52DED028B40F2B8
S315080029400874C2F20004204600F0E9FC47F2A855D4
S31508002950C1F6FF75688C29889FED1C1A401A00EE8F
S31508002960100AB8EEC00A204681EE008A00F0F6FA90
S3150800297000EE100A2888B8EE400ABCEE001A9FED51
S31508002980142A20EE010A01EE100AB8EE411A20EECA
S31508002990020A31EE000A40F6284028EE000AB3EE95
S315080029A00E1AC2F2000030EE010A90ED001A9FEDF1
S315080029B0092A9FED093A21EE021A20EE030A31EEA2
S315080029C0000A80ED000ABDEC028BB0BD0000C8C24B
S315080029D05BD38C3F6666663FCDCCCC3D10B540F2E6
S315080029E09C64C2F20004204600F099FC204600F0E0
S315080029F0B5FA00EE100A9FED071AB8EE400A9FEDE9
S31508002A00062A20EE010A80EE020ABDE8104008F008
S31508002A10EFB900BF083D534000F07F47B0B582B01C
S31508002A2004460020019094F85800012801D102209C
S31508002A303BE0012084F8580020460D46FEF7AAFE22
S31508002A40E16D10B141F010012BE041F20212914301
S31508002A500231E16521684FF6C0738A68C3F6FF73D1
S31508002A601A4005F080431A4402F100428A604DF686
S31508002A700262C0F2040200BF8B68B3F1FF3F0CDCB0
S31508002A80019B01330193019B9342F5D3E06D40F01E
S31508002A90100020F00201012003E0E16D012262F33B
S31508002AA00101E165002184F8581002B0B0BD90F824
S31508002AB05820012A01D1022187E070B582B0002290
S31508002AC001920092026840F2080EC5F2000EB2F1B9
S31508002AD0A04F0EF1F80508D040F20043C5F20003F6
S31508002AE09A4231D10EF59F6300E02B469B689468A5
S31508002AF023435B0728D44FF4E063D1F800C0AA4209
S31508002B0008BF4FF44073B2F1A04F08BF4FF44073AB
S31508002B105EF80340BCF1000F24F460441AD04D68F7
S31508002B2090F8386042F4807245EA46352C4340F204
S31508002B300015C5F20005AA424EF8034019D1DEF881
S31508002B400020DEF800411BE0C16D41F02001C1659F
S31508002B50012134E042F4807140F20012C5F200020D
S31508002B6091424EF8034018D1DEF80010DEF8002135
S31508002B701AE0DEF80044DEF80055DEF800262C439D
S31508002B802243D2071AD15EF8032040F61F748968DB
S31508002B90A243114341EA0C010EE0DEF80024DEF8F8
S31508002BA00065DEF8001632431143C90706D15EF800
S31508002BB0031040F61F7291434EF8031000210022BD
S31508002BC080F8582002B0BDE87040084670470000FB
S31508002BD0F0B581B00022009290F85820012A01D160
S31508002BE0022196E10123076880F85830BB685B0725
S31508002BF034D4D1E900351F26C5F3012407EB840434
S31508002C00226B05F01F05AE40C3F38463B243AB40A5
S31508002C101A432263BA68BB6802F0040203F0080389
S31508002C20D21840F0BC800A6807F114030426C2F3E0
S31508002C304064D1F808E006EAD25C53F82440C2F3AF
S31508002C4004550722AA40BEF1004F24EA02040BD11C
S31508002C5043F80C401A6842F000430DE0C16D41F09C
S31508002C602001C165012151E10EFA05F2224343F81C
S31508002C700C201A6822F000437B61D1E90435FC6810
S31508002C80042B5FD13A6E3A6E0B68C2F3846293FAEC
S31508002C90A3F6C3F3846C6FF3DF43B6FA86F5002B0D
S31508002CA02C464FF6FF7E08BF6446A242C0F2070EC6
S31508002CB00CD13A6E22F000423A660A6802EA0E031E
S31508002CC0C2F3846C92FAA2F2B2FA82F57A6E7A6E3E
S31508002CD0002BC2F384622C4608BF6446A2420CD17C
S31508002CE07A6E22F000427A660A6802EA0E03C2F396
S31508002CF0846C92FAA2F2B2FA82F5BA6EBA6E002B18
S31508002D00C2F384622C4608BF6446A2420CD1BA6E4E
S31508002D1022F00042BA660A6802EA0E03C2F3846C1D
S31508002D2092FAA2F2B2FA82F5FA6EFA6E002BC2F3A2
S31508002D30846208BF6546AA4231D1FA6E22F0004283
S31508002D40FA662CE0062202EA940205FA02FC0E68EC
S31508002D5007F1600555F823404FF20002C0F2FF3232
S31508002D6006F0F846224046EA0C06324342F0004294
S31508002D7045F823200A698B6955F8226026F0807683
S31508002D80334345F822300A690B7F55F82260012B38
S31508002D9026F0007608BF06F1007645F82260BA6884
S31508002DA00D68D2074FD1CA68D7F8B0602B466FF3C3
S31508002DB0DF4326EA030C4FF6FF7602F01804C0F24A
S31508002DC00706E64000242E40C4F27F0446EA0C06B5
S31508002DD0A242C7F8B06036D18BB195FAA5F2B2FA1D
S31508002DE082F2013202F01E03092B02F01F030FD8EC
S31508002DF001229A4003EB430342EA035314E00122FB
S31508002E0002EB956202F01E030A2B02F01F03EFD3B2
S31508002E10012200269A4003EB4303CFF6206606EB11
S31508002E2003531A4342F00073C3F3406607EB860662
S31508002E308A687569C3F3045307249C40A5439A40DE
S31508002E402A4372610D680021C8F208010D425CD060
S31508002E5040F2001CC5F2000C4FF4C161674508BF7B
S31508002E604FF40271B7F1A04F08BF4FF4027151F841
S31508002E700C400022CCF22132954204F0E07E04D0C8
S31508002E801022C9F2C00295422CD122023DD440F24A
S31508002E900062C5F20002974202D0B7F1A04F34D1C2
S31508002EA05CF8012022F0E07242EA0E0242F40002C7
S31508002EB04CF8012040F22401C2F20001096842F6EA
S31508002EC063528909C0F23E52A1FB0212910901EB35
S31508002ED041010C2202EB810100910099A9B10099E8
S31508002EE00139F9E70022CCF25272954214D1002238
S31508002EF0B2EB1E6F10D15CF8012022F0E07242EAB4
S31508002F000E0242F080724CF801200021002280F85F
S31508002F105820084601B0F0BD0021CCF684318D4218
S31508002F204FF0000108BF14F48002EFD1B7F1A04FAB
S31508002F3006D06745EAD0674502D00CF5C06101E0C6
S31508002F400CF500718A6822F0E07242EA0E0242F439
S31508002F5080028A60D9E77047704770470068006C3E
S31508002F6070470000B0B582B004460020002C0190DE
S31508002F7041D0E06D30B9204600F00BF900202066FC
S31508002F8084F858002168886880004FF6C070C5F636
S31508002F90FF7002D58A6802408A608A68D2001DD40A
S31508002FA08A6800F18050104040F08050886040F2F6
S31508002FB02400C2F20000006842F663528009C0F29B
S31508002FC03E52A0FB02029009022202EB400000BF1B
S31508002FD00190019810B101980138F9E78868C00096
S31508002FE00BD4E06D40F01000E065206E40F0010063
S31508002FF02066012002E00120C9E000208A68E36D0E
S3150800300002F0040203F01003D218E26D17D122F47D
S3150800301081720232E2658A68D20736D140F200131D
S3150800302041F48072C5F2000340F2080C9A42C5F2D8
S31508003030000C08D1DCF80030DCF800210BE042F087
S3150800304010010120A2E0DCF800E4DCF80025DCF839
S31508003050003642EA0E021A43D20716D10CF1F802DC
S315080030604FF4E063D4F804E0914208BF4FF440738C
S31508003070B1F1A04F08BF4FF440735CF8032022F467
S315080030807C1242EA0E024CF8032094F81DE0E36B2A
S31508003090D4E902C243EA4E331A4394F8243042EA8A
S315080030A00C02012B42EA034207D1D4F828C00023B8
S315080030B0CFF6FE7303EB4C431A43E36A33B1D4F8F5
S315080030C030C003F4787343EA0C031A43D1F80CC0F2
S315080030D044F20703CFF6F07303EA0C031A43CA60F7
S315080030E00A69636B22F040621A430A618A6812070A
S315080030F03ED494F83820237F520042EA833CCB68BA
S3150800310044F2020223EA020242EA0C02CA60226977
S315080031100B6952B143F480330B61D1F8C0C043F652
S31508003120FF732CEA03031A4307E023F480320A618B
S31508003130D1F8C02043F6FF739A43C1F8C02094F82B
S3150800314040300A69012B10D140F2FD7322EA030CC4
S31508003150D4E91132D4E913E543EA0C031A4342EAE7
S315080031600E022A4342F0010201E022F001020A613E
S3150800317062690B6B012A23F00F0202D1236A013B15
S315080031801A430A63E16D012262F30101E16502B0A7
S31508003190B0BD70B59CB0044617A81421FDF7E5F933
S315080031A002A85421FDF7E1F9206840F20061C5F252
S315080031B00001884200F0988040F20011C5F2000133
S315080031C088425BD0B0F1A04F40F0A7804FF4004092
S315080031D002904FF00050139002A801F037FF08B193
S315080031E0FFF798FB40F2D001C2F200010A6841F2EB
S315080031F04C00C4F20200531C0B6042B9016841F44A
S3150800320000510160016801F40051019101990168BA
S31508003210002641F001010160006817A900F00100CD
S31508003220019001980F201790032018904FF09040B6
S31508003230199600F055FB40F274750820C2F2000595
S31508003240C4F2020005214FF4807385E8430005F1B6
S3150800325014004FF4806C4FF0200E80E808504FF4AD
S315080032600050802228622846C5E9036200F03FFA2A
S3150800327008B1FFF74FFB6565AC624EE04FF40040BE
S3150800328002904FF00050139002A801F0DFFE08B13B
S31508003290FFF740FB40F2D001C2F200010A6841F292
S315080032A04C00C4F20200531C0B6042B9016841F499
S315080032B000510160016801F400510191019901680A
S315080032C041F001010160006817A900F001000190B2
S315080032D001981020179003201890002019904FF09D
S315080032E0904000F0FDFA18E04FF4803002904FF05D
S315080032F00040149002A801F0A9FE08B1FFF70AFBE6
S3150800330041F24C00C4F20200016841F480410160B8
S31508003310006800F48040019001981CB070BD70B53B
S3150800332040F208350446C5F200050068A5F50271A5
S3150800333005F58062884204BF40F20832C5F20002F1
S31508003340B0F1A04F04BF40F20832C5F20002166879
S315080033508068400703D494F85800012801D1022058
S3150800336070BD012084F858002046FEF74FFA20B1B8
S31508003370002084F85800012070BD2068E16D40F6F1
S315080033800172914340F20012C5F2000240F2005C5D
S3150800339006F01F0301F580719042C5F2000CE16545
S315080033A004D0604508D105F1F80601E04FF0A046C3
S315080033B0864218BF002B03D1E16D21F48011E16527
S315080033C0E16D0026C9044FF0000144BF216E21F0CB
S315080033D0060121661C219042016084F8586004D0D9
S315080033E060450ED105F1F80601E04FF0A046864289
S315080033F007D0092B17D80121994040F221231942F9
S3150800340011D0C168890104D5E16D012262F30D313D
S31508003410E16581684FF6C072C7F6FF721140043144
S315080034208160002070BDE16D904241F48011E16534
S3150800343004D0604508BF05F1F80001E04FF0A04050
S31508003440C0688001EDD5E06D012161F30D30E065BE
S31508003450E7E72DE9F041044640F200170068C5F297
S3150800346000074FF4C163B84208BF4FF40273B0F1C6
S31508003470A04F08BF4FF40273DB598668904672075F
S3150800348004D40E4694F85810012902D10220BDE84A
S31508003490F08107F5A06203F01F050121904284F828
S315080034A0581018BF002D16D12046FEF7AFF9B0B94F
S315080034B02168E06D40F60172904300F58070B942CC
S315080034C0E06512D040F20050C5F20000814212D1E8
S315080034D007F540700BE0052DE6D0092DE4D0002055
S315080034E084F858000120BDE8F0814FF0A0408842DA
S315080034F018BF002D03D1E06D20F48010E065E06D63
S3150800350041F21773C0044FF0000044BF206E20F04C
S3150800351006002066606D41F28D77C0F60003C0F69E
S31508003520000741F277750022C0F60005C0E90B379F
S315080035301C2345630B6084F858204A68434642F0CA
S3150800354010024A60CA6842F00102CA604031324637
S3150800355000F057F921684FF6C0738A68C7F6FF73FB
S315080035601A4004328A60BDE8F081014690F82500C9
S31508003570022827D180B50868D1E910CE8A6C03687D
S3150800358023F00E030360136823F480731360026844
S3150800359022F0010202600EF01F00012202FA00F07A
S315080035A0CCF80400D1E913205060486D30B10268A8
S315080035B022F480720260D1E9160242600020BDE85A
S315080035C0804002E00420C8630120012281F82520FA
S315080035D0002281F82420704790F8251002292FD15F
S315080035E080B50168D0E910CE826C0B6823F00E0313
S315080035F00B600B6823F001030B60116821F48071DE
S3150800360011600EF01F02012101FA02F2CCF8042023
S31508003610D0E913325A60426D32B1136823F48073CD
S315080036201360D0E91623536080F82510826B0021B9
S3150800363080F824100AB190470021BDE8804007E0D1
S315080036400421C1630121002280F8251080F8242076
S3150800365008467047B0B5D0E910C30268DCF8001018
S3150800366003F01F030424D2F800E09C400C4218BF64
S315080036701EF004051AD102249C400C4218BF1EF005
S3150800368002051FD1D94009071BD51EF0080118D01D
S31508003690116821F00E011160012101FA03F2CCF83C
S315080036A00420C16380F82510416B18E0116889066B
S315080036B003D4116821F004011160CCF80440016BB1
S315080036C091B9B0BD1168890606D4116821F00A01BE
S315080036D01160012180F82510CCF80440C16A002247
S315080036E0002980F82420ECD0BDE8B040084700281F
S315080036F04FF0010100F083802DE9F04740F2000CFD
S31508003700C4F2020C03684FF6F8320CF5816ECBF65C
S31508003710FD72734538BF02F580624CF6CD441A44F3
S31508003720CCF6CC44A2FB042903F0FC02A2F1080261
S31508003730A2FB04280CF580646FF00305D0E902A605
S3150800374007693CBF0024C4F2020405EA9905C0E9EA
S315080037501045022480F825401C6847F6F07224EAD2
S315080037600202324346693A4387693243C6693A4395
S31508003770076A32433A4342EA0A021A600CF50262C1
S31508003780734538BF0CF50062AB180CF50862C264C5
S31508003790C8F3041201FA02F540F68401BAF5804F1F
S315080037A0C4F202018364056504D1002242601A60EE
S315080037B00D6016E04268D4B2013A032A4FF00002BF
S315080037C01C600D600DD8631E01EB830747F87C2F3C
S315080037D003F01F0201239340C1F8C030BC313A46BA
S315080037E001E000210023C0E9152100210122C3655B
S315080037F0C16380F8252080F82410BDE8F047084604
S31508003800704710B5044690F82400012820D00120FE
S3150800381084F8240094F82500012816D1022084F89B
S3150800382025000020E063D4F800C0DCF8000020F092
S315080038300100CCF800002046FEF797F92068226BB5
S3150800384001683AB141F00E010AE0002084F824002C
S31508003850022010BD21F004010160016841F00A014F
S315080038600160A16C0A68D20303D50A6842F4807223
S315080038700A60616D19B10A6842F480720A600168CB
S3150800388041F001010160002010BD0000B0B50446FA
S3150800389000F011F9054640F22C00C2F2000000685B
S315080038A0611C18BF044400BF00F005F9401BA04284
S315080038B0FAD3B0BD012818BF704740F2C500C2F25E
S315080038C0000001210170704740F21441C4F2010161
S315080038D00A68024214BF08607047FFF7EBBF000092
S315080038E02DE9F04F83B00E68002E00F0CE8000F16F
S315080038F0200241F2004C009200F13847C4F6000C51
S3150800390006224FEAB725604508BF0522052D38BFB0
S315080039104FEAB722002500274FF00008019200BFA2
S31508003920012202FA08FE16EA0E0900F0A380D1F871
S3150800393004C003220CF0030BABF1010602FA07F4EC
S31508003940012E6FEA040A11D88468CE6804EA0A04CC
S31508003950BE4034438460446824EA0E06CCF300145F
S3150800396004FA08F42643466006E000BFBBF1030FDD
S3150800397002D14FF0030B21E0C6688C6806EA0A06F6
S31508003980BC402643BBF1020FC66017D16FF0030295
S31508003990009B02EA580605F01C020F2453F806C0DD
S315080039A004FA02FE0C692CEA0E0C04FA02F242EA48
S315080039B00C029A51D1F804C00CF0030B02680BFAFA
S315080039C007F302EA0A021A431CF4403F026051D088
S315080039D041F26003C4F202031A6840F2004E42F054
S315080039E001021A601A68C4F2010E02F0010202927C
S315080039F0029A28F003024FF6084C7244CFF6FF7C71
S31508003A0052F80C3005F00C060F24B440A343019C71
S31508003A1004FA06F6334342F80C30DEF808204B6801
S31508003A2042EA090640F20C4CDC0258BF22EA0906B3
S31508003A30CEF80860C4F2010CDCF800209C0242EAC9
S31508003A40090658BF22EA0906CCF80060DEF8042009
S31508003A509C0342EA090658BF22EA0906CEF8046022
S31508003A60DEF80020DB0342EA090658BF22EA090607
S31508003A70CEF800600E6808F1010836FA08F207F178
S31508003A80020705F104057FF44BAF03B0BDE8F08FDC
S31508003A900069084018BF01207047426902EA01031D
S31508003AA0914341EA0341816170471823002A08BF00
S31508003AB02823C150704740F63840C2F2000000681B
S31508003AC07047000090F8DD30022B02D14FF0020C4F
S31508003AD07AE090F8DC304FF0020C012B00F074808D
S31508003AE001231F2980F8DC3080F8DDC010DC4B1E6E
S31508003AF0072B27D80FF20401DFE803F004392C332B
S31508003B002C2C2C3F0168D1F8003462F3040339E009
S31508003B107F290DDD80293ED0B1F5807F41D0B1F5F2
S31508003B20007F17D10168D1F8043462F31C633DE0C5
S31508003B3020292AD040290DD10168D1F8043462F32E
S31508003B408A1333E0102905D10168D1F8003462F3ED
S31508003B501C6317E0072180F8DD10002180F8DC10CF
S31508003B6026E00168D1F8003462F310330AE00168F0
S31508003B70D1F8003462F38A1304E00168D1F80034FE
S31508003B8062F39643C1F8003412E00168D1F80434B0
S31508003B9062F304030AE00168D1F8043462F31033CF
S31508003BA004E00168D1F8043462F39643C1F804349A
S31508003BB090F8DD104FF0010C072905D080F8DDC01C
S31508003BC04FF0000C80F8DCC06046704790F8DD3096
S31508003BD0022B01D10223CCE090F8DC30012B4FF008
S31508003BE0020300F0C680B0B5012480F8DC4080F8F6
S31508003BF0DD3003681F29D3F880C3D3F8FCE30FDC54
S31508003C004C1E072C3CD8DFE804F0045E5057505091
S31508003C1050655488526864F3124CC3F8BC2394E088
S31508003C207F2918DD80296DD0B1F5807F7BD0B1F56D
S31508003C30007F3AD15488D3F8F85364F3165E25F01A
S31508003C40F844C3F8F8435268D3F8F84302F01F0261
S31508003C5044EA826277E0202943D0402925D1548856
S31508003C60D3F8F85364F30A2E25F4F844C3F8F84356
S31508003C705268D3F8F84302F01F0244EA822262E04F
S31508003C80102912D14FEADE05B2F802E0D3F8F8435C
S31508003C9065F3DF0E24F01F04C3F8F8435268D3F81F
S31508003CA0F84302F01F0222434DE0072280F8DD2088
S31508003CB0002280F8DC2048E05488526864F3985C57
S31508003CC0C3F8C42341E05488526864F3D54CC3F85A
S31508003CD0C0233AE05488526864F35B6CC3F8C8237F
S31508003CE033E05488D3F8F85364F3061E25F4787441
S31508003CF0C3F8F8435268D3F8F84302F01F0244EABF
S31508003D00421220E05488D3F8F85364F30E3E25F4A3
S31508003D10F814C3F8F8435268D3F8F84302F01F02C0
S31508003D2044EA02420FE05488D3F8F85364F3124E7B
S31508003D3025F07874C3F8F8435268D3F8F84302F0CC
S31508003D401F0244EA4252C3F8F82390F8DD20072AF6
S31508003D5001D101230BE00F298CBFC3F8FCE3C3F89C
S31508003D6080C30121002380F8DD1080F8DC30BDE82F
S31508003D70B04018467047704770477047704770479D
S31508003D80704770477047704790F8DC20012A4FF05B
S31508003D90020221D0012380F8DC3080F8DD20026899
S31508003DA04B1CD2F8CCC309D04CF00203C2F8CC3372
S31508003DB0D2F8CC3323F00C03194301E02CF00201AE
S31508003DC0C2F8CC13D2F8CC1341F00101C2F8CC13D7
S31508003DD00121002280F8DD101046704790F8DD308A
S31508003DE0022B01D1022343E090F8DC30012B4FF07F
S31508003DF002033DD070B580F8DD30D2E900C3D2E9C0
S31508003E0002E60CF4E0546FF35F23156923440EF4BD
S31508003E100074234405F480452B4406F400463344D5
S31508003E2056690025C0F2FF1505EA0646956933442A
S31508003E3005F00076156A334405F08046D2693343A7
S31508003E40066802F0004206EBC1111A43D1F8B830F1
S31508003E5042F20006C3F6004633401A43C1F8B820BA
S31508003E600121002380F8DD1080F8DC30BDE87040C1
S31508003E7018467047704770477047704770477047D5
S31508003E8070472DE9F0410446006806295ED00D46C4
S31508003E90FF2940F0D880D0F88863D0F89053F1070E
S31508003EA018BF15F0010105D00121C0F88C13204672
S31508003EB0FFF7E1FFB00709D515F0020006D0206824
S31508003EC00221C0F88C132046FFF7D6FF700709D5E4
S31508003ED015F0040006D020680421C0F88C1320468B
S31508003EE0FFF7CBFF300709D515F0080006D0206884
S31508003EF00821C0F88C132046FFF7C0FFF00609D545
S31508003F0015F0100006D020681021C0F88C13204642
S31508003F10FFF7B5FF700609D515F0400006D02068F2
S31508003F204021C0F88C132046FFF7AAFFB00640F1DF
S31508003F30688115F0200000F064812168202220465F
S31508003F40C1F88C23BDE8F04100F04CBAD0F888538C
S31508003F50D0F890734668D0F80C80E9030FD517F4AB
S31508003F6080310CD04FF48031C0F88C13012084F8CE
S31508003F70DD00002084F8DC002046FFF704FFA803D4
S31508003F800AD517F4003007D020684FF40031C0F87E
S31508003F908C132046FFF7EFFEF00718BF18F0010054
S31508003FA006D020680121816020460621FFF7E6FE3B
S31508003FB0B00709D518F0020006D0206802218160F2
S31508003FC020460621FFF7DBFE700709D518F0040026
S31508003FD006D020680421816020460621FFF7D0FE1E
S31508003FE0300709D518F0080006D020680821816036
S31508003FF020460621FFF7C5FEF00609D518F0100081
S3150800400006D02068102181602046062100F0E8F9D4
S31508004010B00608D518F0200005D020682021816058
S31508004020204600F0DEF9700640F1EB8018F04000FB
S3150800403000F0E78022684023204606219360BDE809
S31508004040F04100F0CCB9803000EBC5104768C6686F
S31508004050F90718BF16F0010105D001218160204635
S315080040602946FFF78BFEB8070CD516F0020009D0D3
S315080040702068022100EBC510C0F8881020462946A2
S31508004080FFF77DFE78070CD516F0040009D02068E6
S31508004090042100EBC510C0F8881020462946FFF712
S315080040A06FFE38070CD516F0080009D020680821DD
S315080040B000EBC510C0F8881020462946FFF761FEB8
S315080040C0F8060CD516F0100009D02068102100EB70
S315080040D0C510C0F888102046294600F081F97806F0
S315080040E00CD516F0400009D02068402100EBC51019
S315080040F0C0F888102046294600F071F938060CD514
S3150800410016F0800009D02068802100EBC510C0F8A1
S31508004110881020462946FFF72FFEF8050DD516F418
S3150800412080700AD020684FF4807100EBC510C0F883
S31508004130881020462946FFF720FEB8050DD516F447
S3150800414000700AD020684FF4007100EBC510C0F863
S3150800415088102046294600F018F978050DD516F47A
S3150800416080600AD020684FF4806100EBC510C0F863
S3150800417088102046294600F007F938050DD516F4AB
S3150800418000600AD020684FF4006100EBC510C0F843
S3150800419088102046294600F0FAF8F8040DD516F4DA
S315080041A080500AD020684FF4805100EBC510C0F843
S315080041B088102046294600F0E9F8B8040DD516F40B
S315080041C000500AD020684FF4005100EBC510C0F823
S315080041D0881020462946FFF7D5FD780458BFBDE864
S315080041E0F08116F480400CD020684FF4804300EB31
S315080041F0C51220462946C2F88830BDE8F041FFF7C7
S3150800420039BEBDE8F081000070B582B000284AD0FA
S315080042100446022084F8DD0004F1E0001C21FCF7C6
S31508004220A4F9207AC0071FD0206846F60001C4F218
S31508004230010188420CD141F26001C4F202010A6808
S3150800424042F080620A60096801F080610191019973
S315080042500168D4E9042321F4704102F44042114470
S3150800426003F4405211440160204600F020F8207AF9
S31508004270800706D52068E1680268090A61F3092201
S31508004280026001200025002684F8DD0084F8DC5051
S31508004290A11901F118000D631421FCF766F91C3603
S315080042A0C42EF5D100E00125284602B070BD00688D
S315080042B046F60001C4F20101884218BF704780B56E
S315080042C082B041F26000C4F202000168002241F0A7
S315080042D0806101600068012100F08060019001980A
S315080042E0472000F0FEFD472002B0BDE8804000F000
S315080042F0E8BD2DE9F04387B0044602A81421FCF76F
S3150800430034F9206846F60001C4F20101884238D122
S3150800431041F24C00C4F20200016840F2004441F048
S31508004320020101600168C4F6000401F0020101916E
S315080043300199016802AD41F00401016000684FF07F
S31508004340020800F00400019001984FF440400290E2
S315080043504FF0000903260D2720462946CDF80C8084
S31508004360CDF8109005960697FFF7BAFAC02002A96D
S3150800437081E8010304F580602946CDE90567FFF762
S31508004380AFFA07B0BDE8F0837047704770477047CB
S31508004390F0B581B00D460446FFF78DFB2168D1F8CC
S315080043A08823D2030ED406466F1C00BF37B1FFF729
S315080043B082FB7DB1801BA8420CD82168D1F88803FE
S315080043C0C003F3D5012084F8DD00002084F8DC0062
S315080043D001B0F0BD072084F8DD000320F8E7704738
S315080043E070477047704790F8DD30022B4FF0020394
S315080043F030D010B580F8DD300368062910D1196869
S31508004400D2E900CED2E9024221F01F0124F01804B5
S31508004410214311431960C3F814C0C3F818E013E028
S3150800442003EBC111D1F88030D2E900ECD2E902429F
S3150800443023F01F0324F0180423431A43C1F88020ED
S31508004440C1F894E0C1F898C00121002380F8DD1076
S31508004450BDE810401846704790F8DDC0BCF1020F61
S3150800446002D14FF0020C9CE090F8DCC0BCF1010FC1
S315080044704FF0020C00F09580B0B54FF0010E0629FA
S3150800448080F8DCE080F8DDC00ED1511E07291FD860
S315080044900FF20402DFE801F0042E1C231C1C1C4F3B
S315080044A019680268D1616CE0A2F1010CBCF1070F32
S315080044B00ED80FF20602DFE80CF004210B160B0BE0
S315080044C00B4202681B6802EBC111C1F89C3058E028
S315080044D0072180F8DD10002180F8DC1051E019680A
S315080044E0026891624DE002681B6802EBC111C1F8CF
S315080044F0A83046E019680268516242E00268D3E9CA
S31508004500004E803202EBC11CC901CCF82440545835
S31508004510BEF1000F24F44054545032D0DCF8001099
S31508004520BEF5405F41EA0E01CCF8001026D0BEF574
S31508004530005F1FD025E019680268D16221E0026891
S31508004540D3E900E502F1800404EBC11CC901CCF8EB
S315080045502CE0625822F44042625095B1DCF8001013
S31508004560B5F5405F41EA8501CCF8001006D0B5F5EF
S31508004570005F06D19968CCF81C1002E09968CCF85F
S31508004580281090F8DD10072902D14FF0010C06E03B
S3150800459001214FF0000C80F8DD1080F8DCC0BDE882
S315080045A0B0406046704790F8DC20012A4FF00202BE
S315080045B00BD080F8DD2002681368194311600121C9
S315080045C0002280F8DD1080F8DC2010467047B0B570
S315080045D0044690F8DD00022804BF0220B0BD94F816
S315080045E0DC0001284FF0020008BFB0BD012584F8A1
S315080045F0DC5084F8DD00204602F0DCFC002084F85C
S31508004600DD5084F8DC00B0BD90F8DC20012A4FF0BC
S3150800461002020DD080F8DD200268D2F894331943DF
S31508004620C2F894130121002280F8DD1080F8DC20FE
S315080046301046704790F8DC20012A4FF002020DD090
S3150800464080F8DD200268D2F898331943C2F8981327
S315080046500121002280F8DD1080F8DC201046704722
S3150800466090F8DD30022B01D1022354E190F8DC30BA
S31508004670012B4FF0020300F04E812DE9F04F8EB06A
S3150800468080F8DD300368062943D11F68D3F8A013E4
S31508004690566927F0E00726F0C005202E47EA0507E9
S315080046A059D147F020074FF2FF36C3F2FF16D569F6
S315080046B0374006F500662E40156A374325F06E46E4
S315080046C0556A374325F06846956A374325F06046AC
S315080046D0D56A374347EA8507566B27F000573743AD
S315080046E0166B21F4803131431F60C3F8A013D2E959
S315080046F00017D2E90265C0E932171169C0F8D0601F
S31508004700C0E93551D3F8841341F00101C3F8841385
S31508004710F8E003F18007CE01BD5907EBC11C25F06F
S315080047207045BD51BD59674657F8686F25F0200595
S31508004730CDE90A67674657F864AF0D97D3F8A073B3
S3150800474056690C97202E46EA05090ED129F4D0752C
S3150800475005F120091EE09669042E15D0032E0ED009
S31508004760022E9ED027F0E0079DE79569042D0ED00E
S31508004770032D07D0022DE9D029F4D0790AE047F0B5
S31508004780400790E7012503E047F080078BE70225FD
S3150800479065F3C819D769D2E90EE40197176A059433
S315080047A00297D2E90967146C0397D76A07940997A1
S315080047B0576B956D0497D2E91147089547F48055CC
S315080047C0B5F5F05F156D06952AF4807544EA050A75
S315080047D002D1BEF1400F03D12AF4F05444EA070A85
S315080047E0D2F84CB0546D052900940ED84BA454F851
S315080047F02140176B35460C9E01F1010834402E46C0
S3150800480007FA08F545EA040801E0DDF830804FF2BA
S31508004810FF34C0F2FF14019F09EA040504F5006499
S315080048203C402C43029DDDF82490ADB22C434FF654
S31508004830BF75C0F200652E403443039E05F100653E
S3150800484035402C434FF6BF7544EA0904CFF6006598
S315080048502C40049D0A9EB5F1005F4FF6C075C7F659
S31508004860FF7505EA0605059E08BF04F5003406F03F
S315080048703F063544079E052945EA06054FF6FF76A5
S31508004880CFF602660EEA060747EA0407089C06F50D
S31508004890802606EA040647EA0607069E47EA06074A
S315080048A0CCF800700B9F3D602AF480470D9E47EABE
S315080048B00B073760009FCCF85470C3F8A083C1EB90
S315080048C0C107D2E9006500EB87073E6296687D62FC
S315080048D0D568C7E90A6516693E6307D815A757F864
S315080048E02110D3F884733943C3F88413B9F1000F40
S315080048F008D1DCF80010D26D21F4007141EA42219A
S31508004900CCF800100121002380F8DD1080F8DC3097
S315080049100EB0BDE8F04F1846704700BFFFFFFDFF19
S31508004920FFFFFBFFFFFFF7FFFFFFEFFFFFFFDFFFC5
S31508004930FFFFBFFF0200000004000000080000009F
S3150800494010000000200000004000000090F8DD3054
S31508004950022B01D1022344E090F8DC30012B4FF002
S3150800496002033ED02DE9F04180F8DD30D0F800C0D2
S315080049704FF6EF740CEBC11E5EF8EC3FCFF6EC7405
S3150800498092E8600123400134D76804EA05142343FA
S3150800499026F44034234327F4003495692343012D34
S315080049A043EA080309D1D2E9042423F0060322F0D6
S315080049B002021A43224342F001030629CEF80030C8
S315080049C007D809A252F82110DCF884231143CCF841
S315080049D084130121002380F8DD1080F8DC30BDE85F
S315080049E0F0411846704700BF0200000004000000AE
S315080049F00800000010000000200000004000000031
S31508004A000100000090F84120202A03D190F84020A8
S31508004A10012A01D1022118E0242280F841200268E7
S31508004A20136823F001031360136823F4805313609B
S31508004A30136819431160116841F0010111602021C2
S31508004A4080F84110002180F840100846704790F819
S31508004A504120202A03D190F84020012A01D10221C1
S31508004A6017E0242280F841200268136823F0010326
S31508004A701360136823F4706343EA01211160116817
S31508004A8041F001011160202180F84110002180F8D1
S31508004A9040100846704708B310B5044690F8410020
S31508004AA028B9002084F84000204600F014F9242094
S31508004AB084F8410094E80910E2680168012A21F0A7
S31508004AC00101016023F070610161816821F40041F0
S31508004AD0816005D14CF4004181600AE001207047ED
S31508004AE04CF40441022A816003D1416841F4006113
S31508004AF002E0416821F400614160416804F1100C4C
S31508004B0041F0007141F400414160C16821F400415F
S31508004B10C1609CE80E10114341EA0321C160216A75
S31508004B2041EA0C010160016841F0010101600020C1
S31508004B302021606484F84110206384F8420010BD87
S31508004B402DE9F04782B0044690F84100202803D1A9
S31508004B5094F84000012804D10225284602B0BDE891
S31508004B60F08701251E461746884684F84050FEF70A
S31508004B70A2FF814620464FF4004101221923CDF8B1
S31508004B80009002F0F5FA0028E7D1212084F84100C8
S31508004B90102084F8420000206064676266856063BE
S31508004BA0608DB0F5807F49F60000CFF6004004D34B
S31508004BB0FF2121854FF0807205E0618D002921854E
S31508004BC07DD04FF0007217F8013B2668B362676222
S31508004BD0638D013B63854B1E238543466FF39F23F5
S31508004BE0C9B243EA01417368114303EA000211435B
S31508004BF041F400517160618D0A9F002945D0002556
S31508004C006FF39F284FF0FF0A00F58066C0F2FF1584
S31508004C10204639464A4602F021FBE0BB606A216815
S31508004C2010F8012B8A626062608D01386085208DDC
S31508004C3001382085618D29B3000423D120468021BF
S31508004C4000223B46CDF8009002F092FA18BB608D20
S31508004C50B0F5807F07D32068A4F828A050F8041F71
S31508004C602A4631400AE0618D2068218550F8042FD4
S31508004C70C9B2324042EA01414FF0007241EA0801E6
S31508004C8011430160608D0028C2D1204639464A4644
S31508004C9002F0B8FA08B101255FE720682021C16152
S31508004CA042684EF60003CFF600631A4000254260BC
S31508004CB084F8411084F8425084F840504DE7216842
S31508004CC008234A684746024063F39F273A4342F05F
S31508004CD000724A608FE72DE9F0439BB0044616A898
S31508004CE01421FBF742FC01A804305021FBF73DFCD8
S31508004CF0206847F60001C4F20001884248D14FF403
S31508004D00807801A8CDF8048000F0A0F908B1FDF775
S31508004D1001FE41F24C06C4F20206306816AC40F0B9
S31508004D200400306030684FF0120900F0040000906B
S31508004D3000983068012540F001003060306803278C
S31508004D4000F00100009000984FF4007016900820BB
S31508004D501A9040F60000C4F600002146CDF85C9093
S31508004D6018951997FEF7BCFD02201A904FF090404F
S31508004D702146CDE91689CDE91857FEF7B1FDF06849
S31508004D8040F08040F060F06800F0804000900098A5
S31508004D901BB0BDE8F083000050B3B0B50446006808
S31508004DA0D4E901124CF6CC43036045F2555303602F
S31508004DB041608260FEF77FFE2168CA6852070DD0FF
S31508004DC0054600BFFEF777FE401B2168322802D34E
S31508004DD0C86840070ED1C8684007F3D10A69E06879
S31508004DE0824206BF4AF6AA20086008610020B0BDC4
S31508004DF0012070470320B0BD01684AF6AA220020A8
S31508004E000A60704740F22C0040F63841C2F20000B2
S31508004E10C2F2000100680A6810440860704780B54D
S31508004E20032000F089F80F2000F007F808B10120E8
S31508004E3080BD00F02CF8002080BDB0B540F22C01F2
S31508004E40C2F200010968F9B1044640F22400C2F230
S31508004E5000004FF47A720068B2FBF1F1B0FBF1F092
S31508004E6000F0DCFF0F2C4FF001050ED868B94FF0A3
S31508004E70FF3021460022002500F033F840F23000CA
S31508004E80C2F20000046000E001252846B0BD82B0E9
S31508004E9041F25800C4F20200816841F001018160C4
S31508004EA0816801F0010101910199016841F0805181
S31508004EB00160006800F080500090009802B000F091
S31508004EC0BCB800280CD400F01F01012202FA01F137
S31508004ED01C2202EAD0004EF20012CEF200028150E5
S31508004EE0704710B54EF60C5CCEF2000CDCF80030BC
S31508004EF0C3F3022E8EF00704042C28BF0424BEF147
S31508004F0003034FF0FF3E0EFA04F438BF0023A14313
S31508004F1099400EFA03F39A43114300F00F0200F189
S31508004F2060430901043A03F564436244002848BF14
S31508004F3002F10C03197010BD4EF60C51CEF20001A9
S31508004F400A684FF6FF031A4060F30A2242F08060AF
S31508004F5040F0FD700860704747F2000CC4F2000C80
S31508004F60DCF80020B0F5007F2ED000285ED1DCF8F2
S31508004F70800002F4C06220F48070B2F5806FCCF82D
S31508004F80800058D1DCF80000012262F34A20CCF8F0
S31508004F90000040F22400C2F20000006832235843A1
S31508004FA04DF68363C4F21B33A0FB030302EB934065
S31508004FB0002200BFDCF81410013842F1000349054D
S31508004FC02DD5002BF6D12AE0DCF8800002F4C0616A
S31508004FD040F48070B1F5806FCCF880002BD1DCF8F6
S31508004FE00000012161F34A20CCF8000040F22400B9
S31508004FF0C2F200000068322250434DF68362C4F2C2
S315080050001B32A0FB020201EB92400022DCF81410CE
S31508005010013842F10003490501D5002BF6D1DCF829
S315080050201400400544BF0320704704E0022060F3E3
S315080050304A22CCF800200020704747F20800C4F244
S315080050400000016841F48041016070472DE9F04194
S3150800505082B00446807841F20C060007C4F20206C4
S3150800506001D400204FE0F06C5FEAC00808D4F06C69
S3150800507040F08050F064F06C00F080500190019888
S3150800508047F20007C4F20007386840F480703860B9
S31508005090FEF711FD054600BF3868C00506D4FEF7C1
S315080050A00AFD401B0228F7D9032025E0D6F884001C
S315080050B010F4407017D0216D884211D0D6F88400BC
S315080050C0D6F8841020F4407041F48031C6F8841074
S315080050D0D6F8841021F48031C6F88410C6F8840006
S315080050E0C00740F0E880D6F88400216D20F44070AF
S315080050F00843C6F884000020B8F1000F03D4F16C09
S3150800510021F08051F1642168CA0705D0F26F6368FF
S3150800511022F003021A43F2678A0705D5F26FA368DD
S3150800512022F00C021A43F2674A0705D5F26FE368C4
S3150800513022F030021A43F2670A0705D5F26F23698F
S3150800514022F0C0021A43F267CA0605D5F26F6369F0
S3150800515022F440721A43F2678A0605D5F26FA369EC
S3150800516022F440621A43F2674A0605D5F26FE369EC
S3150800517022F440521A43F2670A0605D5F26F236AEB
S3150800518022F440421A43F267CA0505D5F26F636AEC
S3150800519022F440321A43F2678A0307D5D6F89020DC
S315080051A0A36A22F003021A43C6F890208A0505D599
S315080051B0F26FE36A22F440221A43F2674A050CD5D5
S315080051C0F26F236B22F440121A43B3F5801FF2677D
S315080051D003D1326842F4801232600A050CD5F26FA8
S315080051E0636B22F440021A43B3F5800FF26703D1CA
S315080051F0326842F480123260CA040CD5F26FA36B8F
S3150800520022F040721A43B3F1807FF26703D1326805
S3150800521042F4801232608A040CD5F26FE36B22F0F6
S3150800522040621A43B3F1006FF26703D1326842F461
S31508005230801232604A040CD5F26F236C22F0406269
S315080052401A43B3F1006FF26703D1326842F4801251
S3150800525032600A040CD5F26F636C22F040521A438E
S31508005260B3F1805FF26703D1326842F4803232606C
S31508005270CA030CD5F26FA36C22F040421A43B3F16D
S31508005280804FF26703D1326842F4803232604903B4
S315080052900ED5D6F89010E26C21F440111143B2F500
S315080052A0001FC6F8901003D1316841F480113160AF
S315080052B002B0BDE8F081FEF7FEFB054641F28837ED
S315080052C0D6F8840080073FF50EAFFEF7F4FB401BC7
S315080052D0B842F5D9E8E670472DE9F047002862D0CC
S315080052E042F2000AC4F2020A0446DAF800000D4641
S315080052F000F00F0088420CD2DAF8000020F00F0008
S315080053002843CAF80000DAF8000000F00F00A842A7
S3150800531049D1206841F20808C107C4F2020802D13F
S3150800532081077CD494E0626858F8081C022A38D0B1
S31508005330032A3BD1890136D5D8F80410D8F80420B9
S3150800534042F20047C2F3031201F00301D8F8043011
S315080053500132C0F2F407032904BF47F64007C0F23A
S315080053607D17B7FBF2F1D8F80420C3F30623594397
S31508005370C2F34162022303EB4202B1FBF2F14BF2A4
S315080053800042C0F2C442914208D9D8F8001011F080
S31508005390F00F15D0800701D5A06888B14FF0000935
S315080053A017E0880304D40120BDE8F0874805FAD53C
S315080053B000F0D4F84BF20041C0F2C4418842EDD95E
S315080053C0D8F80000082161F307104FF00109C8F862
S315080053D00000D8F80000616820F003000843C8F808
S315080053E00000FEF768FB064641F28837D8F8000049
S315080053F0616800F00C00B0EB810F05D0FEF75BFB8F
S31508005400801BB842F2D940E02068810707D4B9F179
S31508005410000F1DD0D8F8001021F0F00116E0410762
S3150800542005D5D8F8001041F4E061C8F80010010766
S3150800543006D5D8F80010072262F30D21C8F8001027
S31508005440D8F80010A26821F0F0011143C8F800103E
S31508005450DAF8001001F00F01A9421AD9DAF80000AB
S3150800546020F00F002843CAF80000FEF724FB064682
S3150800547041F28837DAF8000000F00F00A84207D09A
S31508005480FEF719FB801BB842F4D90320BDE8F08764
S315080054902068410707D5D8F80010E26821F4E061D2
S315080054A01143C8F80010000708D5D8F8000021698C
S315080054B020F4605040EAC100C8F8000000F04EF839
S315080054C0D8F800104DF2B412C1F30311C0F6000269
S315080054D0515C40F2240201F01F0120FA01F140F26A
S315080054E03000C2F200000068C2F200021160BDE896
S315080054F0F047FFF7A2BC41F20000C4F202000168BF
S3150800550041F400210160704740F2240041F208018D
